8=FIX.4.2|9=10|35=A|34=1|10=180|8=FIX.4.2|9=10|35=0|34=2|10=164|8=FIX.4.2|9=10|35=D|34=3|10=185|8=FIX.4.2|9=18|35=8|58=Some Text|10=225|8=FIX.4.2|9=20|35=8|58="Some Text"|10=030|8=FIX.4.2|9=22|35=8|58='"Some Text"'|10=110|8=FIX.4.2|9=20|35=8|58=\Some Text\|10=146|8=FIX.4.2|9=10|35=A|34=1|10=180|8=FIX.4.2|9=10|35=0|34=2|10=164|8=FIX.4.2|9=10|35=D|34=3|10=185|8=FIX.4.2|9=18|35=8|58=Some Text|10=225|8=FIX.4.2|9=20|35=8|58="Some Text"|10=030|8=FIX.4.2|9=22|35=8|58='"Some Text"'|10=110|8=FIX.4.2|9=20|35=8|58=\Some Text\|10=146|8=FIX.4.2|9=10|35=A|34=1|10=180|8=FIX.4.2|9=10|35=0|34=2|10=164|8=FIX.4.2|9=10|35=D|34=3|10=185|8=FIX.4.2|9=18|35=8|58=Some Text|10=225|8=FIX.4.2|9=20|35=8|58="Some Text"|10=030|8=FIX.4.2|9=22|35=8|58='"Some Text"'|10=110|8=FIX.4.2|9=20|35=8|58=\Some Text\|10=146|8=FIX.4.2|9=10|35=A|34=1|10=180|8=FIX.4.2|9=10|35=0|34=2|10=164|8=FIX.4.2|9=10|35=D|34=3|10=185|8=FIX.4.2|9=18|35=8|58=Some Text|10=225|8=FIX.4.2|9=20|35=8|58="Some Text"|10=030|8=FIX.4.2|9=22|35=8|58='"Some Text"'|10=110|8=FIX.4.2|9=20|35=8|58=\Some Text\|10=146|8=FIX.4.2|9=10|35=A|34=1|10=180|8=FIX.4.2|9=10|35=0|34=2|10=164|8=FIX.4.2|9=10|35=D|34=3|10=185|8=FIX.4.2|9=18|35=8|58=Some Text|10=225|8=FIX.4.2|9=20|35=8|58="Some Text"|10=030|8=FIX.4.2|9=22|35=8|58='"Some Text"'|10=110|8=FIX.4.2|9=20|35=8|58=\Some Text\|10=146|8=FIX.4.2|9=10|35=A|34=1|10=180|8=FIX.4.2|9=10|35=0|34=2|10=164|8=FIX.4.2|9=10|35=D|34=3|10=185|8=FIX.4.2|9=18|35=8|58=Some Text|10=225|8=FIX.4.2|9=20|35=8|58="Some Text"|10=030|8=FIX.4.2|9=22|35=8|58='"Some Text"'|10=110|8=FIX.4.2|9=20|35=8|58=\Some Text\|10=146|8=FIX.4.2|9=10|35=A|34=1|10=180|8=FIX.4.2|9=10|35=0|34=2|10=164|8=FIX.4.2|9=10|35=D|34=3|10=185|8=FIX.4.2|9=18|35=8|58=Some Text|10=225|8=FIX.4.2|9=20|35=8|58="Some Text"|10=030|8=FIX.4.2|9=22|35=8|58='"Some Text"'|10=110|8=FIX.4.2|9=20|35=8|58=\Some Text\|10=146|8=FIX.4.2|9=10|35=A|34=1|10=180|8=FIX.4.2|9=10|35=0|34=2|10=164|8=FIX.4.2|9=10|35=D|34=3|10=185|8=FIX.4.2|9=18|35=8|58=Some Text|10=225|8=FIX.4.2|9=20|35=8|58="Some Text"|10=030|8=FIX.4.2|9=22|35=8|58='"Some Text"'|10=110|8=FIX.4.2|9=20|35=8|58=\Some Text\|10=146|8=FIX.4.2|9=10|35=A|34=1|10=180|8=FIX.4.2|9=10|35=0|34=2|10=164|8=FIX.4.2|9=10|35=D|34=3|10=185|8=FIX.4.2|9=18|35=8|58=Some Text|10=225|8=FIX.4.2|9=20|35=8|58="Some Text"|10=030|8=FIX.4.2|9=22|35=8|58='"Some Text"'|10=110|8=FIX.4.2|9=20|35=8|58=\Some Text\|10=146|8=FIX.4.2|9=10|35=A|34=1|10=180|8=FIX.4.2|9=10|35=0|34=2|10=164|8=FIX.4.2|9=10|35=D|34=3|10=185|8=FIX.4.2|9=18|35=8|58=Some Text|10=225|8=FIX.4.2|9=20|35=8|58="Some Text"|10=030|8=FIX.4.2|9=22|35=8|58='"Some Text"'|10=110|8=FIX.4.2|9=20|35=8|58=\Some Text\|10=146|8=FIX.4.2|9=10|35=A|34=1|10=180|8=FIX.4.2|9=10|35=0|34=2|10=164|8=FIX.4.2|9=10|35=D|34=3|10=185|8=FIX.4.2|9=18|35=8|58=Some Text|10=225|8=FIX.4.2|9=20|35=8|58="Some Text"|10=030|8=FIX.4.2|9=22|35=8|58='"Some Text"'|10=110|8=FIX.4.2|9=20|35=8|58=\Some Text\|10=146|34=1|35=A|8=FIX.4.2|9=10|10=180|34=2|35=0|8=FIX.4.2|9=10|10=164|34=3|35=D|8=FIX.4.2|9=10|10=185|35=8|8=FIX.4.2|9=18|58=Some Text|10=225|35=8|8=FIX.4.2|9=20|58="Some Text"|10=030|35=8|8=FIX.4.2|9=22|58='"Some Text"'|10=110|35=8|8=FIX.4.2|9=20|58=\Some Text\|10=146|8=FIX.4.2|9=10|35=A|34=1|10=180|8=FIX.4.2|9=10|35=0|34=2|10=164|8=FIX.4.2|9=10|35=D|34=3|10=185|8=FIX.4.2|9=18|35=8|58=Some Text|10=225|8=FIX.4.2|9=20|35=8|58="Some Text"|10=030|8=FIX.4.2|9=22|35=8|58='"Some Text"'|10=110|8=FIX.4.2|9=20|35=8|58=\Some Text\|10=146|8=FIX.4.2|9=10|35=A|34=1|10=180|8=FIX.4.2|9=10|35=0|34=2|10=164|8=FIX.4.2|9=10|35=D|34=3|10=185|8=FIX.4.2|9=18|35=8|58=Some Text|10=225|8=FIX.4.2|9=20|35=8|58="Some Text"|10=030|8=FIX.4.2|9=22|35=8|58='"Some Text"'|10=110|8=FIX.4.2|9=20|35=8|58=\Some Text\|10=146|8=FIX.4.2|9=10|35=A|34=1|10=180|8=FIX.4.2|9=10|35=0|34=2|10=164|8=FIX.4.2|9=10|35=D|34=3|10=185|8=FIX.4.2|9=18|35=8|58=Some Text|10=225|8=FIX.4.2|9=20|35=8|58="Some Text"|10=030|8=FIX.4.2|9=22|35=8|58='"Some Text"'|10=110|8=FIX.4.2|9=20|35=8|58=\Some Text\|10=146|8=FIX.4.2|9=10|35=A|34=1|10=180|8=FIX.4.2|9=10|35=0|34=2|10=164|8=FIX.4.2|9=10|35=D|34=3|10=185|8=FIX.4.2|9=18|35=8|58=Some Text|10=225|8=FIX.4.2|9=20|35=8|58="Some Text"|10=030|8=FIX.4.2|9=22|35=8|58='"Some Text"'|10=110|8=FIX.4.2|9=20|35=8|58=\Some Text\|10=146|8=FIX.4.2|9=10|35=A|34=1|10=180|8=FIX.4.2|9=10|35=0|34=2|10=164|8=FIX.4.2|9=10|35=D|34=3|10=185|8=FIX.4.2|9=18|35=8|58=Some Text|10=225|8=FIX.4.2|9=20|35=8|58="Some Text"|10=030|8=FIX.4.2|9=22|35=8|58='"Some Text"'|10=110|8=FIX.4.2|9=20|35=8|58=\Some Text\|10=146|8=FIX.4.2|9=10|35=A|34=1|10=180|8=FIX.4.2|9=10|35=0|34=2|10=164|8=FIX.4.2|9=10|35=D|34=3|10=185|8=FIX.4.2|9=18|35=8|58=Some Text|10=225|8=FIX.4.2|9=20|35=8|58="Some Text"|10=030|8=FIX.4.2|9=22|35=8|58='"Some Text"'|10=110|8=FIX.4.2|9=20|35=8|58=\Some Text\|10=146|8=FIX.4.2|9=10|35=A|34=1|10=180|8=FIX.4.2|9=10|35=0|34=2|10=164|8=FIX.4.2|9=10|35=D|34=3|10=185|8=FIX.4.2|9=18|35=8|58=Some Text|10=225|8=FIX.4.2|9=20|35=8|58="Some Text"|10=030|8=FIX.4.2|9=22|35=8|58='"Some Text"'|10=110|8=FIX.4.2|9=20|35=8|58=\Some Text\|10=146|8=FIX.4.2|9=10|35=A|34=1|10=180|8=FIX.4.2|9=10|35=0|34=2|10=164|8=FIX.4.2|9=10|35=D|34=3|10=185|8=FIX.4.2|9=18|35=8|58=Some Text|10=225|8=FIX.4.2|9=20|35=8|58="Some Text"|10=030|8=FIX.4.2|9=22|35=8|58='"Some Text"'|10=110|8=FIX.4.2|9=20|35=8|58=\Some Text\|10=146|8=FIX.4.2|9=10|35=A|34=1|10=180|8=FIX.4.2|9=10|35=0|34=2|10=164|8=FIX.4.2|9=10|35=D|34=3|10=185|8=FIX.4.2|9=18|35=8|58=Some Text|10=225|8=FIX.4.2|9=20|35=8|58="Some Text"|10=030|8=FIX.4.2|9=22|35=8|58='"Some Text"'|10=110|8=FIX.4.2|9=20|35=8|58=\Some Text\|10=146|8=FIX.4.2|9=10|35=A|34=1|10=180|8=FIX.4.2|9=10|35=0|34=2|10=164|8=FIX.4.2|9=10|35=D|34=3|10=185|8=FIX.4.2|9=18|35=8|58=Some Text|10=225|8=FIX.4.2|9=20|35=8|58="Some Text"|10=030|8=FIX.4.2|9=22|35=8|58='"Some Text"'|10=110|8=FIX.4.2|9=20|35=8|58=\Some Text\|10=146|8=FIX.4.2|9=10|35=A|34=1|10=180|8=FIX.4.2|9=10|35=0|34=2|10=164|8=FIX.4.2|9=10|35=D|34=3|10=185|8=FIX.4.2|9=18|35=8|58=Some Text|10=225|8=FIX.4.2|9=20|35=8|58="Some Text"|10=030|8=FIX.4.2|9=22|35=8|58='"Some Text"'|10=110|8=FIX.4.2|9=20|35=8|58=\Some Text\|10=146|8=FIX.4.2|9=10|35=A|34=1|10=180|8=FIX.4.2|9=10|35=0|34=2|10=164|8=FIX.4.2|9=10|35=D|34=3|10=185|8=FIX.4.2|9=18|35=8|58=Some Text|10=225|8=FIX.4.2|9=20|35=8|58="Some Text"|10=030|8=FIX.4.2|9=22|35=8|58='"Some Text"'|10=110|8=FIX.4.2|9=20|35=8|58=\Some Text\|10=146|8=FIX.4.2|9=10|35=A|34=1|10=180|8=FIX.4.2|9=10|35=0|34=2|10=164|8=FIX.4.2|9=10|35=D|34=3|10=185|8=FIX.4.2|9=18|35=8|58=Some Text|10=225|8=FIX.4.2|9=20|35=8|58="Some Text"|10=030|8=FIX.4.2|9=22|35=8|58='"Some Text"'|10=110|8=FIX.4.2|9=20|35=8|58=\Some Text\|10=146|